:040000001DEF16F0EA
:0800080038EF16F08B808B909D
:10001000120068EC00F01200C8EF15F0F953000070
:1000200001E11200FF0E00000000000000000000CF
:1000300000000000000000000000000000000000C0
:1000400000000000000000000000000000000000B0
:1000500000000000000000000000000000000000A0
:100060000000000000000000000000000000000090
:10007000000000000000000000000000FF0FD8A4F6
:10008000D2D70000000000000000000000000000C7
:1000900000000000000000000000F92FC3D712008C
:1000A0005C6B080E5C6112005BA102D08B8C01D0EE
:1000B0008B9C8B8ED8905B338B9E5C2BF2D75951E7
:1000C0005B6F50EC00F05A515B6F50EC00F0120087
:1000D0000001EB2B030EEB6501D0EB6BE0A51200EA
:1000E0008B968B948B928B9AB99200EED2F0E9505A
:1000F000EB51E926EF5001015B6F50EC00F000EE90
:1001000058F0E9500001EB5101015B6FD8905B356D
:10011000E926EE50596FEF505A6F5FEC00F0B9824C
:1001200006EC00F00001EB530AE0EB050AE0020EDA
:10013000EB6301D008D0030EEB63120006D08B8670
:1001400012008B8412008B8212008B8A1200000135
:10015000E551E66301D01200E5290101586F400E18
:10016000586301D0586B58510001E66301D09D9847
:1001700000EE0CF0E950E551E926EF50AD6E0101BB
:1001800058510001E56F12000001E551E66306D009
:100190009EA804D001015551AD6E1200E62901015F
:1001A000566F400E566301D0566B0001E5510101B8
:1001B000566306D0F2BEF9D79EB8A7EC00F0F5D78B
:1001C0005791F2BE5781F29E00000000000000002F
:1001D00000EE0CF0E9500001E651E926010155510D
:1001E000EF6E56510001E66F9D88010157B1F28E06
:1001F00057A1F29E12000A0E0101556FC4EC00F0E7
:100200001200546B5351EA6E52515425E96EEF526D
:10021000D8B412005351EA6E52515425E96EEF5092
:10022000556FC4EC00F0542BEDD70001D84BD92BFF
:100230001200AE500101506FABA206D0AB98AE5089
:10024000AE50AE50AB881200ABA400D00001E8293C
:1002500001014F6F400E4F6301D04F6B0001E7511A
:1002600001014F6301D002D00001E7630CD000EE22
:1002700060F0E950E851E92601015051EF6E4F510D
:100280000001E86F1200AE5012000001E0B71DD06F
:100290000101246B2351246113D02251EA6E2151B4
:1002A000E96E2451256F2551E926EF50266F00EEA7
:1002B0004CF0E9502451E9262651EF6E242BEAD761
:1002C00023510001EC6FE0871200E0BB1DD001015B
:1002D000246B2351246113D02251EA6E2151E96E1F
:1002E0002451256F2551E926EF50266F00EEC8F006
:1002F000E9502451E9262651EF6E242BEAD72351E9
:100300000001ED6FE08B1200200E0101276F306FAE
:10031000366F3B6F406F446F280E316F290E4D6F63
:10032000320E256F426F430E266F490E246F610E09
:10033000496F630E436F456F640E376F4B6F650EE9
:100340002A6F660E2C6F690E416F6C0E2D6F336F26
:100350006D0E476F486F6E0E3A6F4A6F6F0E286FC3
:100360002E6F346F386F3D6F466F720E2B6F3F6F7D
:10037000730E326F4C6F750E3E6F760E296F770ECF
:100380002F6F356F396F790E3C6F4E6B010E536FC7
:10039000240E526F01EC01F0120012009EA6120012
:1003A0003E0E0101556FC4EC00F09E96C7A03AD0F6
:1003B000420E556FC4EC00F0C950206FC7AA13D08D
:1003C000440E556FC4EC00F00A0E0001E36109D041
:1003D00000EEBEF0E950E351E32BE9260101205184
:1003E000EF6EC68859D0410E556FC4EC00F0C7A41B
:1003F00013D0520E556FC4EC00F00001E083E46BA3
:10040000E4510101216F0001E42B0101CDEC01F069
:100410002251C96EC68840D0570E556FC4EC00F00B
:10042000C6883AD0C7A415D0440E556FC4EC00F06E
:10043000C5AC02D0C68830D00001E4510101216F63
:100440000001E42B0101CDEC01F02251C96EC688F8
:1004500023D0C7A608D0530E556FC4EC00F000019E
:10046000E093E36B19D0C7A817D0500E556FC4ECBA
:1004700000F0FBEC00F0000E0001E3650BD0000E75
:100480000101226FBE0E216F0001E3510101236FB4
:1004900045EC01F00001E36BC6BCC69C12000B39B1
:1004A0000F0B0C6F0A0E0C6104D00C51300F556FFE
:1004B00003D00C51370F556FC4EC00F00F0E0B1525
:1004C0000C6F0A0E0C6104D00C51300F556F03D025
:1004D0000C51370F556FC4EC00F01200610E0A6129
:1004E00001D007D00A517A0804E3DF0E0A150B6F1A
:1004F00012000A510B6F1200176B1451EA6E135160
:100500001725E96EEF5222E0186B1651EA6E15516D
:100510001825E96EEF5203E117511B6F12001651B7
:10052000EA6E1551E96E1851196F1951E926EF500D
:100530001A6F1451EA6E13511725E96E1A51EF62C2
:1005400001D002D0182BE1D7172BD7D717511B6F2B
:100550001200196B1651EA6E15511925E96EEF520A
:1005600021E01A6B1851EA6E17511A25E96EEF5205
:1005700017E01851EA6E1751E96E1A511B6F1B51A3
:10058000E926EF501C6F1651EA6E15511925E96ED8
:100590001C51EF6203D019511D6F12001A2BE2D7C4
:1005A000192BD8D719511D6F1200116B0551EA6E26
:1005B00004511125E96EEF500F6F0751EA6E065195
:1005C000E96E1151112BE926EF50106F10510F6198
:1005D00002D0126912000F51106103D0010E126F88
:1005E00012000F5303E0105301E0E0D7126B12002A
:1005F000B8860451AF6E0551B06E12000A510B6FF0
:100600004FEC02F009510B6F4FEC02F01200200E7C
:100610000A6301D013D0090E0A6301D00FD00B0E6C
:100620000A6301D00BD00A0E0A6301D007D00D0E69
:100630000A6301D003D00C0E0A6303D0010E0B6FC6
:1006400012000B6B12000F51EA6E0E51E96E106B27
:100650001051E926300EEF6001D015D00F51EA6E2F
:100660000E51E96E106B1051E926EF5039080BE37B
:100670000F51EA6E0E51E96E106B1051E926300EE3
:10068000EF5C116F12000F51EA6E0E51E96E106BA4
:100690001051E926610EEF6001D015D00F51EA6EBE
:1006A0000E51E96E106B1051E926EF5066080BE30E
:1006B0000F51EA6E0E51E96E106B1051E926570E7C
:1006C000EF5C116F12000F51EA6E0E51E96E106B64
:1006D0001051E926410EEF6001D012D00F51EA6EA1
:1006E0000E51E96E106B1051E926EF50460808E3F1
:1006F0000F51EA6E0E51E96E370EEF5C116F12006A
:10070000116B1200A69CA6B2FED70851A96E095122
:10071000A86EA69EA6840A91F2BE0A81F29E550E8C
:10072000A76EAA0EA76EA682A6940AB1F28E0AA19F
:10073000F29E1200200E0F6301D0C4D0300E0F6362
:1007400001D0C3D0310E0F6301D0C2D0320E0F637F
:1007500001D0C3D0330E0F6301D0C4D0340E0F6369
:1007600001D0C5D0350E0F6301D0C6D0360E0F6351
:1007700001D0C7D0370E0F6301D0C8D0380E0F6339
:1007800001D0C9D0390E0F6301D0C9D0410E0F631B
:1007900001D0CAD0420E0F6301D0CBD0430E0F63FD
:1007A00001D0CCD0440E0F6301D0CCD0450E0F63E6
:1007B00001D0CDD0460E0F6301D0CED0470E0F63CF
:1007C00001D0CFD0480E0F6301D0D0D0490E0F63B7
:1007D00001D0D1D04A0E0F6301D0D2D04B0E0F639F
:1007E00001D0D2D04C0E0F6301D0D3D04D0E0F6389
:1007F00001D0D3D04E0E0F6301D0D4D04F0E0F6373
:1008000001D0D5D0500E0F6301D0D4D0510E0F635C
:1008100001D0D5D0520E0F6301D0D5D0530E0F6347
:1008200001D0D6D0540E0F6301D0D7D0550E0F6330
:1008300001D0D8D0560E0F6301D0D8D0570E0F6319
:1008400001D0D9D0580E0F6301D0DAD0590E0F6302
:1008500001D0DAD05A0E0F6301D0DAD0240E0F6324
:1008600001D0DBD05B0E0F6301D0DCD05D0E0F63D7
:1008700001D0DCD03C0E0F6301D0DCD03E0E0F6304
:1008800001D0DCD05C0E0F6301D0DCD02F0E0F63E3
:1008900001D0DCD05F0E0F6301D0DCD02D0E0F63D2
:1008A00001D0DCD02B0E0F6301D0DCD03D0E0F63E6
:1008B00001D0DCD02A0E0F6301D0DDD07C0E0F6397
:1008C000E1D0DCD0106B116BDFD0106B1169DCD084
:1008D000200E106F300E116FD7D0110E106FEE0E6C
:1008E000116FD2D0100E106FFC0E116FCDD0550EBF
:1008F000106F010E116FC8D0110E106FDD0E116F49
:10090000C3D0110E106FDF0E116FBED0220E106F0C
:10091000C00E116FB9D0110E106F1169B5D0110E44
:10092000106FFD0E116FB0D0110E106FF30E116F1E
:10093000ABD0540E106FFC0E116FA6D0106BCF0E03
:10094000116FA2D0440E106FFC0E116F9DD0010EDE
:10095000106FCF0E116F98D0010E106FC30E116F74
:1009600093D0100E106FDF0E116F8ED0110E106F1E
:10097000330E116F89D0440E106FCC0E116F84D0DE
:10098000106B3E0E116F80D0290E106F030E116F89
:100990007BD0106B0F0E116F77D0A00E106F330E3F
:1009A000116F72D0880E106F330E116F6DD0106BF7
:1009B00011696AD0110E106FE30E116F65D0080E29
:1009C000106F116961D0190E106FE30E116F5CD0BA
:1009D000110E106FDD0E116F57D0440E106FC00E48
:1009E000116F52D0106B3F0E116F4ED0220E106F50
:1009F000030E116F49D00A0E106F330E116F44D0E1
:100A0000AA0E106F116B40D0A40E106F116B3CD06A
:100A1000220E106FCC0E116F37D0550E106FDD0EF9
:100A2000116F32D0106B870E116F2ED0106B780EB5
:100A3000116F2AD0280E106F116B26D0820E106F06
:100A4000116B22D0880E106F116B1ED0220E106F0A
:100A5000116B1AD0106B0C0E116F16D0110E106F97
:100A6000116B12D0550E106F116B0ED0110E106F4E
:100A70000C0E116F09D01069116B06D0440E106F67
:100A8000116B02D0106B116B1051126F1151136F5B
:100A90001200136B146B176B186B156B100E15157A
:100AA000166F16671200D890173718370C370D37A6
:100AB000133714370E51135D0F511463145D05E3A2
:100AC0000E51135F0F51145B1781152BE7D70001EF
:100AD000E0B106D0E16B000ED76FE10ED66FE0817A
:100AE0000101085302E1095305E008510F6F095154
:100AF000106F08D00001D65101010F6F0001D751CE
:100B00000101106F0F51136F1051146F0A51156FBF
:100B10000B51166F7CEC02F01B510F27D8B0102B35
:100B20001051EA6E0F51E96EEF5210E10001E26BD5
:100B3000000E0101136FE20E0001D66F0101135187
:100B40000001D76F0101136B146B12000F51156F69
:100B50001051166F0A51176F0B51186FA9EC02F064
:100B6000126B1D510F25116F105112231251EA6E95
:100B70001151E96EEF5208E01251EA6E1151E96E1F
:100B8000114B122B000EEF6E11510001D66F0101B7
:100B900012510001D76F01010F51136F1051146FE3
:100BA0001200056B066B0001FE93FE9501010769BB
:100BB000010E086F0101072B0151EA6E0051072554
:100BC000E96EEF50096F08A108D009510A6F07ECD0
:100BD00003F00B53EFE1080E086F08A70CD0020ECC
:100BE000086F2D0E096303D00001FE83E3D72B0E9F
:100BF000096301D0DFD708A30ED004530AE1300EF9
:100C0000096305D0080E046F040E086FD3D70A0ECF
:100C1000046F100E086F08A508D0100E086F780E2C
:100C2000096303D0100E046FC5D709510A6F6EEC2B
:100C300002F00B51096F0A0E046507D0410E0961DD
:100C400001D003D0370E095F02D0300E095F095181
:100C5000046101D03DD005510A6F06510B6F04515C
:100C60000503F350126FF450136F04510603F35051
:100C700013271251056F1351066F09510527D8B07C
:100C8000062B126B05510C6F06510D6F06AF06D087
:100C90000C1F0D1F0C2BD8B40D2B122B04510E6FF3
:100CA0000F6B49EC05F01751106F1851116F12A11D
:100CB00005D0101F111F102BD8B4112B10510A632F
:100CC00004D011510B63116375D70001FE8572D7F3
:100CD000025302E1035311E007510A6F096B0051FF
:100CE0000A27015109230351EA6E0251E96EE92AEC
:100CF0000951EF6EE9060A51EF6E0001FEA504D01E
:100D0000010105697F0E066F0001FEA306D00101F7
:100D1000051F061F052BD8B4062B01010551096FCD
:100D200006510A6F120001010F6B0001FF51010112
:100D3000106F0001FF07010110531FE00151EA6E1F
:100D400000510F25E96EEF500D6F0351EA6E02510D
:100D5000E96E0F510F2BE926EF500E6F0E510D610A
:100D600002D0116912000D510E6103D0010E116FF6
:100D700012000D67DAD7116B1200116B120000011F
:100D8000FF6B01010151EA6E0051E96E0001FF5154
:100D9000FF2BE926EF52F5E1FF0712000851BE6E66
:100DA0001200020E0101086F0001FF510101096FDD
:100DB00082EC03F012000051046F0151056F320EF6
:100DC000086F340E096F300E0A6F0B6F0C6B010E3B
:100DD000076F080E066FD5EC02F0125305E1870E7F
:100DE000026F130E036FA0D00051046F0151056F05
:100DF000340E086F380E096F300E0A6F0B6F0C6BD4
:100E0000010E076F080E066FD5EC02F0125305E1D4
:100E1000C30E026F090E036F87D00051046F01519A
:100E2000056F390E086F360E096F300E0A6F0B6FA3
:100E30000C6B010E076F080E066FD5EC02F0125313
:100E400005E1E10E026F040E036F6ED00051046FD6
:100E50000151056F310E086F390E096F320E0A6F9E
:100E6000300E0B6F0C6F0D6B010E076F080E066FC7
:100E7000D5EC02F0125305E1700E026F020E036F03
:100E800053D00051046F0151056F330E086F380EB7
:100E9000096F340E0A6F300E0B6F0C6F0D6B010E65
:100EA000076F080E066FD5EC02F0125305E1380EFD
:100EB000026F010E036F38D00051046F0151056FAE
:100EC000350E086F370E096F360E0A6F300E0B6F36
:100ED0000C6F0D6B010E076F080E066FD5EC02F05C
:100EE000125304E1CF0E026F036B1ED00051046F4A
:100EF0000151056F310E086F096F350E0A6F320E02
:100F00000B6F300E0C6F0D6F0E6B010E076F080E1E
:100F1000066FD5EC02F0125304E1670E026F036B0B
:100F200003D00001FF6B12000251046F0351056FE3
:100F3000F8EC02F0086B0251096F82EC03F0010E2D
:100F4000086F0351096F82EC03F012000B6B0C6BFE
:100F50000D6B040E0D6119D00B530C530B370C376E
:100F60000B370C370B370C370B370C37F00E0B17D2
:100F700009510E6F0A510F6F23EC03F011510B133F
:100F80000C53094B0A2B0D2BE4D70B510D6F0C5151
:100F90000E6F1200200E0101046F066F300E056FF8
:100FA000610E016F036F640E006F740E026F076BAA
:100FB000010E536F000E526F01EC01F05850096F93
:100FC00059500A6FFEEC02F0FBEC00F0200E046FAB
:100FD000310E056F610E016F036F640E006F740EAA
:100FE000026F066B010E536F000E526F01EC01F0A1
:100FF0005A50096F5B500A6FFEEC02F0FBEC00F0F8
:10100000200E046F066F320E056F610E016F036FC5
:10101000640E006F740E026F076B010E536F000EAB
:10102000526F01EC01F05C50096F5D500A6FFEECED
:1010300002F0FBEC00F0200E046F066F330E056F1C
:10104000610E016F036F640E006F740E026F076B09
:10105000010E536F000E526F01EC01F05E50096FEC
:101060005F500A6FFEEC02F0FBEC00F01200586AD1
:10107000596A5A6A5B6A5C6A5D6A5E6A5F6A000105
:10108000D26BD36BD46BD56B12001200120000EE42
:10109000D2F0E9500851E926000EEF6E120000EE82
:1010A000D2F0E9500851E926FF0EEF6E120000EE73
:1010B00058F0E95009510C6FD8900C35E926E92A0F
:1010C0000A510D6F0B51EF6EE9060D51EF6E1200D4
:1010D0000A6B040E0A6112000951EA6E0851E96EAA
:1010E000EF52D8B412000951EA6E08510A25E96E90
:1010F000EF500F6F9AEC03F012510E6F13510D6FFA
:1011000000EE58F0E9500A510B6FD8900B35E926E4
:10111000E92A0D51EF6EE9060E51EF6E0A2BD9D771
:101120008B9E8B90949C949E94901200CD90CD9227
:10113000CD8ECF0ECD16F951CD12FA51DC6FFB5189
:10114000DD6F9D801200D59EF9A102D0D58C01D013
:10115000D59CD59AFA2902E1D58605D0D596F80E08
:10116000D516FA51D512FB51DA6FFC51DB6FF294B0
:10117000F28A12000001A06BE96B1200FE81F951A6
:101180000101006F0001FA510101016FBFEC06F08F
:10119000FF51FB6F0A0E0101006F0D0E016F026B14
:1011A000010E536F000E526F01EC01F00001F95176
:1011B0000101046F0001FA510101056F650E096F0D
:1011C000730E0A6F740E086F0B6F0C6B010E076FB6
:1011D000080E066FD5EC02F0125354E10001E0BF97
:1011E00027D00A0E01010D6F0D0E0E6F200E046F39
:1011F0000A6F3A0E096F4E0E0C6F4F0E0B6F540EA6
:10120000006F640E076F650E016F086F6D0E056F3E
:101210006F0E066F730E026F740E036F0F6B010E6D
:10122000536F000E526F01EC01F00001E08F27D0E8
:101230000A0E01010E6F0D0E0F6F200E046F0A6F64
:101240003A0E096F460E0C6F0D6F4F0E0B6F540E5A
:10125000006F640E076F650E016F086F6D0E056FEE
:101260006F0E066F730E026F740E036F106B010E1C
:10127000536F000E526F01EC01F00001E09FFE91F0
:10128000FAEF0EF00001F9510101006F0001FA516F
:101290000101016F700E046F720E056F690E066F0B
:1012A0006E0E076F740E086F200E096F0A6B010E29
:1012B000036F040E026F060E0001FF6F93EC06F041
:1012C000115332E1080E0001FB65FAEF0EF0FA51FE
:1012D000EA6EF951E96E060EE926220EEF62FAEF88
:1012E0000EF0FA51EA6EF951E96EFB05E926220E7D
:1012F000EF62FAEF0EF0FA51EA6EF951FB25E96E52
:10130000000EEF6E070E0101086F096B0001F95125
:10131000010108270001FA510101092368EC08F0D6
:101320000001FE91FAEF0EF00001F9510101006F8A
:101330000001FA510101016F650E056F086F660E1D
:10134000066F680E0A6F720E046F076F730E096FD7
:101350000B6B010E036F040E026F070E0001FF6F8F
:1013600093EC06F0115305E168EC00F0FE91FAEF02
:101370000EF00001F9510101006F0001FA51010165
:10138000016F780E046F300E056F066B010E036F50
:10139000040E026F020E0001FF6F93EC06F0115372
:1013A00005E18B980001FE91FAEF0EF00001F95172
:1013B0000101006F0001FA510101016F780E046F05
:1013C000310E056F066B010E036F040E026F020EE5
:1013D0000001FF6F93EC06F0115305E18B880001CB
:1013E000FE91FAEF0EF00001F9510101006F0001CA
:1013F000FA510101016F720E046F610E056F770ED5
:10140000066F200E076F086B010E036F040E026F4C
:10141000040E0001FF6F93EC06F01153D8A4A3D083
:10142000040E086F096B0001F95101010827000142
:10143000FA5101010923200E0C6F2C0E0D6F0E6B5B
:10144000010E0B6F0C0E0A6F67EC05F013510001D3
:10145000FC6F010114510001FD6FFF6BFC5302E1B1
:10146000FD5337E0040EFF6134D0FC510101096FD8
:101470000001FD5101010A6FA6EC07F001EE00F03A
:10148000E9500001FF510101086FD89008370001B1
:10149000FF2B01010851E926E92A0D51096F0E5170
:1014A000EF6EE9060951EF6E086B096B200E0C6FA9
:1014B0002C0E0D6F0E6B010E0B6F0C0E0A6F67EC8E
:1014C00005F013510001FC6F010114510001FD6F83
:1014D000C5D7040EFF63FAEF0EF00101086B040E8E
:1014E00008613DD0200E106F146F610E126F670EF1
:1014F0000F6F690E0D6F6E0E0E6F700E096F720E0C
:10150000116F740E0B6F0C6F750E0A6F770E136FE1
:10151000156B010E536F090E526F01EC01F001EED5
:1015200000F0E95008510B6FD8900B35E926EE50CA
:10153000096FEF500A6FFEEC02F00851096F01EEDF
:1015400000F0E95008510C6FD8900C35E926EE50A8
:101550000A6FEF500B6F57EC08F0082BC0D7000153
:10156000FE91FAEF0EF00001F9510101006F000148
:10157000FA510101016F640E046F6F0E056F740E56
:10158000066F200E076F086B010E036F040E026FCB
:10159000040E0001FF6F93EC06F0115372E1030E8D
:1015A000086F096B0001F951010108270001FA5188
:1015B00001010923200E006F2C0E016F026B010E3A
:1015C0000B6F000E0A6F67EC05F013510001FC6F02
:1015D000010114510001FD6FFC5304E1FD53D8B427
:1015E000FAEF0EF0FC510101006F0001FD51010105
:1015F000016F026B036B0A0E046FD1EC05F0095109
:101600000001FF6F0101086B096B200E006F2C0EAB
:10161000016F026B010E0B6F000E0A6F67EC05F095
:1016200013510001FC6F010114510001FD6FFC53C7
:1016300003E1FD53D8B4DED3FC510101046F000176
:10164000FD510101056F6F0E086F660E096F0A6F7D
:101650000B6B010E076F080E066FD5EC02F01253EC
:1016600007E10001FF510101086F47EC08F006D0C7
:101670000001FF510101086F4FEC08F00001FE91DD
:10168000B9D30001F9510101006F0001FA510101C4
:10169000016F200E096F630E046F6C0E066F6E0EE5
:1016A000086F6F0E056F076F0A6B010E036F040E54
:1016B000026F060E0001FF6F93EC06F011533FE13D
:1016C000050E086F096B0001F9510101082700019F
:1016D000FA5101010923200E006F2C0E016F026BDD
:1016E000010E0B6F000E0A6F67EC05F0135100013D
:1016F000FC6F010114510001FD6FFC5303E1FD5328
:10170000D8B478D3FC510101046F0001FD510101EF
:10171000056F6F0E086F660E096F0A6F0B6B010E77
:10172000076F080E066FD5EC02F0125303E145EC8B
:1017300008F002D046EC08F00001FE915BD30001F6
:10174000F9510101006F0001FA510101016F630EAF
:10175000046F6C0E056F650E066F610E076F720EDB
:10176000086F096B010E036F040E026F050E000176
:10177000FF6F93EC06F0115304E137EC08F0FE9193
:1017800039D30001F9510101006F0001FA51010143
:10179000016F200E096F650E056F076F6C0E046FE9
:1017A000086F760E066F0A6B010E036F040E026F50
:1017B000060E0001FF6F93EC06F011533AE1060E9E
:1017C000086F096B0001F951010108270001FA5166
:1017D00001010923200E006F2C0E016F026B010E18
:1017E0000B6F000E0A6F67EC05F013510001FC6FE0
:1017F000010114510001FD6FFC5302E1FD5316E09D
:10180000FC510101006F0001FD510101016F026BEC
:10181000036B0A0E046FD1EC05F009510001FF6F54
:10182000FF51FF080101086FCEEC06F00001FE91A8
:10183000E1D20001F9510101006F0001FA510101EB
:10184000016F200E0B6F610E086F620E046F650E44
:101850000A6F690E056F720E076F740E066F096FBF
:101860000C6B010E036F040E026F080E0001FF6F78
:1018700093EC06F01153D8A49ED0080E086F096BA4
:101880000001F951010108270001FA510101092362
:10189000200E006F2C0E016F026B010E0B6F000EFD
:1018A0000A6F67EC05F013510001FC6F0101145140
:1018B0000001FD6FFC5302E1FD537AE0FC51010190
:1018C000006F0001FD510101016FDBEC06F000012A
:1018D000FF5336E0200E0101036F086F106F136F86
:1018E000420E006F610E056F0B6F630E096F640E81
:1018F0000F6F650E076F0E6F670E0D6F680E0A6F24
:10190000690E016F6E0E0C6F6F0E126F720E046F08
:10191000740E026F066F116F146B010E536F000E81
:10192000526F01EC01F00001FC510101526F000106
:10193000FD510101536F01EC01F0FBEC00F038D0D8
:101940000A0E01011E6F200E076F0F6F146F186FC4
:101950002E0E1D6F500E006F610E126F1A6F620E09
:10196000036F156F650E056F096F1C6F670E0E6FA5
:10197000680E116F690E0C6F166F6C0E046F6D0E92
:10198000066F6E0E0D6F6F0E026F720E016F196F84
:10199000730E086F740E0A6F0B6F106F136F176F53
:1019A0001B6F1F6B010E536F000E526F01EC01F0A5
:1019B0000001FE911FD20001F9510101006F0001E9
:1019C000FA510101016F610E046F640E056F066F1D
:1019D000720E076F200E086F096B010E036F040E65
:1019E000026F050E0001FF6F93EC06F01153D8A4AF
:1019F0009CD0050E086F096B0001F9510101082701
:101A00000001FA5101010923200E006F2C0E016F15
:101A1000026B010E0B6F000E0A6F67EC05F013519D
:101A20000001FC6F010114510001FD6FFC5302E144
:101A3000FD5378E0FC510101006F0001FD510101EF
:101A4000016F026B036B0A0E046FD1EC05F00951B4
:101A50000001FF6FD1EC06F0200E036F086F106FCE
:101A6000136F320E016F610E046F0B6F630E026F06
:101A7000096F640E056F066F0F6F650E0E6F670EB0
:101A80000D6F680E0A6F690E006F6E0E0C6F6F0E91
:101A9000126F720E076F740E116F146B010E536F7D
:101AA000000E526F01EC01F00001FC510101526F78
:101AB0000001FD510101536F01EC01F00A0E1C6F92
:101AC000200E006F096F0C6F116F280E016F290E29
:101AD0001B6F610E066F0E6F630E166F650E036F40
:101AE000106F126F1A6F660E136F146F690E156FF9
:101AF000186F6B0E0F6F6D0E0D6F6F0E0B6F720EFA
:101B0000026F076F730E046F740E056F086F0A6F14
:101B1000176F760E196F1D6B010E536F000E526F0B
:101B200001EC01F00001FE9165D10001F9510101C4
:101B3000006F0001FA510101016F200E0B6F6C0E56
:101B4000066F076F700E046F096F730E0A6F750EC4
:101B5000056F086F0C6B010E036F040E026F080E09
:101B60000001FF6F93EC06F01153D8A484D0080E47
:101B7000086F096B0001F951010108270001FA51B2
:101B800001010923200E006F2C0E016F026B010E64
:101B90000B6F000E0A6F67EC05F013510001FC6F2C
:101BA000010114510001FD6F200E0101086F0F6F3C
:101BB0002D0E046F500E006F640E0E6F650E0D6FCC
:101BC0006C0E026F036F6E0E0C6F700E066F720E4E
:101BD0000B6F730E076F740E096F750E016F056F33
:101BE0000A6F106B010E536F000E526F01EC01F083
:101BF0000001FC510101046F0001FD510101056F5D
:101C00006F0E006F6E0E016F026B010E076F000EFC
:101C1000066FD5EC02F0125315E16F0E006F6E0ED9
:101C2000016F026B010E536F000E526F01EC01F059
:101C3000F19E7888788C030E086F010E096F82EC94
:101C400003F014D06F0E006F660E016F026F036B0E
:101C5000010E536F000E526F01EC01F0F18E789877
:101C6000789C030E086F096982EC03F0FBEC00F02E
:101C70000001FE91BFD00001F9510101006F000188
:101C8000FA510101016F200E0A6F610E076F680E95
:101C9000096F6C0E066F700E056F730E046F086F80
:101CA0000B6B010E036F040E026F070E0001FF6F36
:101CB00093EC06F01153D8A47DD0070E086F096B82
:101CC0000001F951010108270001FA51010109231E
:101CD000200E006F2C0E016F026B010E0B6F000EB9
:101CE0000A6F67EC05F013510001FC6F01011451FC
:101CF0000001FD6F200E0101066F0D6F530E006F86
:101D0000610E036F640E0C6F650E0B6F680E056F2E
:101D10006C0E026F6E0E0A6F700E016F720E096FFD
:101D2000730E046F740E076F750E086F0E6B010E45
:101D3000536F000E526F01EC01F00001FC510101E4
:101D4000046F0001FD510101056F6F0E006F6E0EF3
:101D5000016F026B010E076F000E066FD5EC02F0EB
:101D6000125312E16F0E006F6E0E016F026B010EC7
:101D7000536F000E526F01EC01F0040E086F010E5C
:101D8000096F82EC03F011D06F0E006F660E016FC9
:101D9000026F036B010E536F000E526F01EC01F0E6
:101DA000040E086F096B82EC03F0FBEC00F00001FD
:101DB000FE9120D00001F9510101006F0001FA519C
:101DC0000101016F730E046F680E056F6F0E066FD1
:101DD000770E076F086B010E036F040E026F040E7F
:101DE0000001FF6F93EC06F0115304E1CAEC07F019
:101DF0000001FE910001FEA120D00A0E01010B6F2F
:101E00000D0E0C6F200E036F420E006F610E016FFE
:101E1000086F630E046F640E026F0A6F6D0E066F1B
:101E2000076F6E0E096F6F0E056F0D6B010E536F0E
:101E3000000E526F01EC01F012004F0E0101006F15
:101E40004B0E016F0A0E026F0D0E036F046B010E35
:101E5000536F000E526F01EC01F01200938AAC84B4
:101E6000B886F951AF6EFA51B06EAC98AB8EAC9C9F
:101E7000AC90AC8AAB9CAB94AE50AE50AE50AB982D
:101E8000AB889D8A12000001F96BE851E763F98184
:101E900012000001E751E86301D0FBD7FA91F2BECE
:101EA000FA81F29E000000000000000000EE60F0E9
:101EB000E950E751E926EF50F96FE72B400EE76351
:101EC00001D0E76BFAB1F28EFAA1F29EF951FB6FE5
:101ED0001200938A938C9388938CF951C86EC69C98
:101EE000C950FA6FC686C684C682C6901200000129
:101EF000E36B9E969D86C68A1200A6B2FED7FA5163
:101F0000A96EA69EA69CA680A850FB6F120037EC77
:101F100008F0E095030EEB6F120090EC08F08B9642
:101F20008B948B928B9A949694949492949A94987E
:101F3000120012000E6B0F6B0A6B0B6B0C6B100E0A
:101F40000C150D6F0D671200D8900A370B37000182
:101F5000FE37FF3701010E370F3707510E5D08516D
:101F60000F630F5D05E307510E5F08510F5B0A8198
:101F70000C2BE5D70001DD51CF6EDC51CE6ECD804C
:101F800012000001DB51D76EDA51D66ED58E1200E9
:101F90000001FA91F2BEFA81F29E000000000000FA
:101FA0000000D851F86FD951F96FFAB1F28EFAA149
:101FB000F29EF851FB6FF951FC6F1200F851FA5D77
:101FC000F951FB63FB5D07E3F851FA5DFC6FF951D2
:101FD000FB59FD6F1200F851FF08FF6FFF0EF95516
:101FE000FE6FFA51FF27FB510101006F0001FE5106
:101FF000010100230001FF2B02E10101002B000180
:10200000FF51FC6F010100510001FD6F120043EC14
:102010000FF0F953D8B4120049EC0FF0FB51F86FF0
:10202000040EF86316D0F29E0000000000000000CD
:10203000FA0EF96F0EEC00F0FA0EF96F0EEC00F0EC
:10204000FA0EF96F0EEC00F0FA0EF96F0EEC00F0DC
:10205000FF00EA51F86316D0000EE96506D0000EC5
:10206000FA6FA00EF96FBEEC08F00001A06BE96BEF
:102070000A0E0101556FC4EC00F03E0E556FC4EC22
:1020800000F01200000EE96517D07F0EF86301D052
:1020900003D0080EF86310D0080E0101556FC4EC90
:1020A00000F0200E556FC4EC00F0080E556FC4EC24
:1020B00000F00001E9071200200EE9611200F8515A
:1020C0000101556FC4EC00F000EEA0F0E9500001F2
:1020D000E951E92BE926F851EF6EA00EE96EE951BE
:1020E000E926000EEF6E1200060EFA6FFB91F9AFB3
:1020F00008D0FB81F81FF91FF853F953F82BD8B417
:10210000F92B0101066B0001FA07F851FE6FF95136
:10211000FF6FF9AF05D0FE1FFF1FFE2BD8B4FF2BBA
:102120000A0E0101076F086B9AEC0FF00E510001C7
:10213000FC6F01010F510001FD6FF9AF05D0FC1FCD
:10214000FD1FFC2BD8B4FD2BFC51300F0101096F92
:1021500001EE00F0E9500001FA51E92601010951B0
:10216000EF6E0001FE6BF85101010C6F0001F95197
:1021700001010D6F0001F9AF08D001010C1F0D1F07
:102180000C2BD8B40D2B0001FE2B0A0E01010E6F93
:102190000F6B49EC05F017510001FC6F010118515C
:1021A0000001FD6FFEA105D0FC1FFD1FFC2BD8B464
:1021B000FD2BFC51F86FFD51F96F000EF865F967C2
:1021C00001D002D0F9AF9FD7FBA105D02D0E0101A0
:1021D000556FC4EC00F001EE00F0E9500001FA5137
:1021E000E926EF52D8B4120001EE00F0E950FA519E
:1021F000E926EF500101556FC4EC00F00001FA2B05
:10220000EAD7F951EA6EF851E96E0101006B00510D
:10221000E926EF520DE10001F951EA6EF851E96E3D
:10222000010EE926EF5202E1E09F1200E08F12005A
:102230000001F951EA6EF851E96E0101016B01519B
:10224000E926EF0427E1050E0001FA631200F951B7
:10225000EA6EF851E96E010EE926EF50FB6FF85176
:10226000E96E020EE926EF50FC6FF851E96E030E9D
:10227000E926EF50FD6FF851E96E040EE926EF50A4
:10228000FE6FFF6B000E0101096FFB0E086F68EC1B
:1022900008F012000001F951EA6EF851E96E0101EF
:1022A000026B0251E926020EEF6269D0090E0001AD
:1022B000FA6312000101096B0001F951EA6EF8514D
:1022C000E96E010EE926EF5001010C6F0001F85193
:1022D000E96E020EE92601010A6BEF500B6F0C51FB
:1022E0000A1357EC08F0010E096F0001F951EA6E6C
:1022F000F851E96E030EE926EF5001010C6F000161
:10230000F851E96E040EE92601010A6BEF500B6FDC
:102310000C510A1357EC08F0020E096F0001F95135
:10232000EA6EF851E96E050EE926EF5001010C6FD7
:102330000001F851E96E060EE92601010A6BEF5023
:102340000B6F0C510A1357EC08F0030E096F0001D4
:10235000F951EA6EF851E96E070EE926EF500101D6
:102360000C6F0001F851E96E080EE92601010A6BB5
:10237000EF500B6F0C510A1357EC08F012000001DC
:10238000F951EA6EF851E96E0101036B0351E92638
:10239000030EEF622DD0030E0001FA631200F95113
:1023A000EA6EF851E96E010EE926040EEF601200A4
:1023B000F951EA6EF851E96E020EE926EF520CE18E
:1023C000F951EA6EF851E96E010EE926EF5001016C
:1023D000086F47EC08F01200F951EA6EF851E96E07
:1023E000010EE926EF500101086F4FEC08F01200D2
:1023F0000001F951EA6EF851E96E0101046B0451D4
:10240000E926040EEF6212D0020E0001FA631200F8
:10241000F951EA6EF851E96E010EE926EF5203E137
:1024200045EC08F0120046EC08F012000001F951EA
:10243000EA6EF851E96E0101056B0551E926050EBA
:10244000EF6203D037EC08F012000001F951EA6E98
:10245000F851E96E0101066B0651E926060EEF629E
:102460000ED00001F951EA6EF851E96E010EE9262D
:10247000EF50FF080101086FCEEC06F012000001DA
:10248000F951EA6EF851E96E0101076B0751E9262F
:10249000070EEF6212000001F951EA6EF851E96E81
:1024A000010EE926EF0408E1040E0101086F010E98
:1024B000096F82EC03F01200040E0101086F096B32
:1024C00082EC03F01200E095F7B1E085F86BF7B10C
:1024D000F82B99EC0FF01200F29E000000000000B3
:1024E00000007E6A7F6A010E0001FA6F7DEC0FF03A
:1024F000F76BFB51F86FFA6B7DEC0FF0F96BFB514A
:10250000F727F851F923F951F86FFF0EF76303D05D
:10251000F851FF0A07E0F751F96FF851FA6F2EEC06
:102520000FF005D0670EF96FFA6B2EEC0FF0040E6A
:10253000FA6F7DEC0FF0F96BFB67F981E099F9B167
:10254000E089BAEC08F0F991FA691E0EFB6FD10E22
:10255000FC6FA3EC08F0200EF96F1F0EFA6FD10E7E
:10256000FB6F96EC08F08DEC0FF087EC0FF0020E8D
:10257000FA6F7DEC0FF0FB51EE6FEE5302E0EE29A7
:1025800002E1320EEE6FEE51F96FD890F93769EC37
:102590000FF077EC0FF0F28CD08E9F9A9F989F905F
:1025A000F194030EFA6F7DEC0FF0FB0504E1F19E50
:1025B0007888788CE08DF28E12009488BD9EBD9C48
:1025C000BD86BD840101086BCEEC06F0B990B982DE
:1025D000B682B6909E92CA82CA90CB68CA849498FA
:1025E00012006CEC12F0DDEC12F0640E0001F96FD9
:1025F0000EEC00F0C1EC0FF0BAEC0FF00A0E010186
:10260000006F016F0C6F2D0E056F300E096F310ECC
:10261000066F340E0A6F360E076F440E026F480EB7
:102620000B6F500E046F530E036F086F0D6B010E8E
:10263000536F000E526F01EC01F00A0E0001F76FAC
:102640005B0EF86FF96B000E0101536FF70E526FBE
:1026500001EC01F0200E096F3A0E086F460E006F74
:102660005B0E0A6F610E056F650E076F690E016FD5
:102670006D0E036F720E026F066F770E046F0B6B99
:10268000010E536F000E526F01EC01F02E0E00018F
:10269000F86F300EF96F310EF76FFA6FFB6B000EAB
:1026A0000101536FF70E526F01EC01F0200E556FD0
:1026B000C4EC00F0310E0001F76F320EFA6F330EEA
:1026C000FB6F340EF86F350EFD6F390EFE6F3A0E4C
:1026D000F96FFC6FFF6B000E0101536FF70E526F25
:1026E00001EC01F0200E556FC4EC00F0200E036FDA
:1026F000066F300E086F310E056F096F320E076FCF
:10270000330E046F370E0A6F4A0E006F6C0E026FA5
:10271000750E016F0B6B010E536F000E526F01ECC3
:1027200001F05D0E0001F76F0A0EF86FF96B000EF5
:102730000101536FF70E526F01EC01F0200E036F91
:10274000096F300E0A6F320E016F3A0E086F610E7C
:10275000046F630E026F640E056F066F690E006FE3
:10276000720E076F780E0B6F0C6B010E536F000E1D
:10277000526F01EC01F00001EE5101010B6F4FECC3
:1027800002F0FBEC00F0200E096F2D0E046F3A0EE4
:10279000086F500E006F6C0E026F036F700E066FA5
:1027A000730E076F750E016F056F0A6B010E536F85
:1027B000000E526F01EC01F00001E0AD0FD06F0E82
:1027C000F76F6E0EF86F0A0EF96FFA6B000E0101CB
:1027D000536FF70E526F01EC01F00FD06F0EF76FD1
:1027E000660EF86FF96F0A0EFA6FFB6B000E0101AF
:1027F000536FF70E526F01EC01F00001F78163ECAB
:1028000012F0E0A996D0450EF76F410EF86FF96B04
:10281000000E0101096FF70E086F68EC08F0FA0E60
:102820000001F96F0EEC00F0FA0EF96F0EEC00F0FB
:10283000440EF76F530EF86F500EF96F2D0EFA6FAE
:10284000FB6B000E0101096FF70E086F68EC08F0D2
:10285000FA0E0001F96F0EEC00F0FA0EF96F0EECB3
:1028600000F0310EF76F360EF86F530EF96F300E21
:10287000FA6FFB6B000E0101096FF70E086F68EC31
:1028800008F0FA0E0001F96F0EEC00F0FA0EF96F85
:102890000EEC00F0340EF76F480EF86F200EF96F53
:1028A000FA6FFB6B000E0101096FF70E086F68EC01
:1028B00008F0FA0E0001F96F0EEC00F0FA0EF96F55
:1028C0000EEC00F0460EF76F570EF86F200EF96F02
:1028D000760EFA6FFB6B000E0101096FF70E086FA1
:1028E00068EC08F0FA0E0001F96F0EEC00F0FA0E39
:1028F000F96F0EEC00F0200EF76F310EF86F300E0E
:10290000F96FFA6FFB6B000E0101096FF70E086F8C
:1029100068EC08F0010E086F4FEC08F0FA0E0001A9
:10292000F96F0EEC00F0FA0EF96F0EEC00F037ECD8
:1029300008F0C8EC0FF0FB51EF6FFC51F06F010E87
:10294000F36FF46BF56B0001E0AB09D0E09B000E78
:10295000F96FC80EF86FED51FA6F01EC11F000013C
:10296000E0A709D0E097000EF96F4C0EF86FEC511C
:10297000FA6F01EC11F0C8EC0FF0FB51F16FFC5154
:10298000F26FEF51F86FF051F96FF151FA6FF251A8
:10299000FB6FDEEC0FF0F76BFA0EFC65FD67F7716D
:1029A000E0AFF3D0F7A1F1D0F151EF6FF251F06F3A
:1029B0000A0EF56304D0010EF36FF46BF56BF3535D
:1029C00002E1F45319E0F66B040EF66110D0F651F3
:1029D0000101096F0001F35101010A6F0001F45177
:1029E00001010B6F57EC08F00001F62BEDD7F35304
:1029F000F453D890F337F437F353D8A4C6D0F45334
:102A0000D8A4C3D0540EF86F650EF96F730EFA6F29
:102A1000740EFB6F3A0EFC6FFD6B000E0101536FDD
:102A2000F80E526F01EC01F00001F551F86FF96BEF
:102A300074EC10F0FBEC00F00001F55326E0F50516
:102A400026E0020EF56301D02BD0030EF56301D012
:102A500032D0040EF56301D03AD0050EF56301D0F3
:102A600042D0060EF56301D048D0070EF56301D0C1
:102A700048D0080EF56301D05FD0090EF56301D090
:102A80005DD00A0EF56381D07FD0F52B7ED037EC78
:102A900008F00101086B4FEC08F00001F52B75D030
:102AA000010E0101086F4FEC08F0086B47EC08F0CD
:102AB0000001F52B6AD0020E0101086F4FEC08F0FF
:102AC000010E086F47EC08F00001F52B5ED0030EF5
:102AD0000101086F4FEC08F0020E086F47EC08F098
:102AE0000001F52B52D0030E0101086F47EC08F0EE
:102AF00046EC08F00001F52B48D045EC08F0F52B2A
:102B000044D00101096B0A690B6957EC08F0010E0A
:102B1000096F0A690B6957EC08F0020E096F0A6920
:102B20000B6957EC08F0030E096F0A690B6957EC43
:102B300008F00001F52B29D0F52B27D00101086BF7
:102B400047EC08F0010E086F47EC08F0020E086F22
:102B500047EC08F0030E086F47EC08F045EC08F06E
:102B6000480E0001F86F450EF96F4C0EFA6F4F0ECC
:102B7000FB6FFC6B000E0101096FF80E086F68EC2B
:102B800008F00001F52B01D0F52B07EC10F0DBD697
:102B9000D8CF05F0E0CF06F0EACF07F0E9CF08F094
:102BA000F4CF09F0F3CF0AF00B6EF2A417D00101B5
:102BB000516B0001DA51D62401014F6F0001DB5146
:102BC00001015123506B080E4F2751515023505192
:102BD000D76E4F51D66EF29415EC01F09EA017D02F
:102BE0000101516B0001DC51CE2401014F6F000146
:102BF000DD5101015123506B080E4F2751515023D5
:102C00005051CF6E4F51CE6E09EC00F09E909EB8A1
:102C1000A7EC00F09EAA03D019EC01F09E9A0B508D
:102C20000AC0F3FF09C0F4FF08C0E9FF07C0EAFFCC
:102C300006C0E0FF05C0D8FF10000001E091E36B83
:102C4000E093E56BE66BE76BE86B0D0EEA6FD86B14
:102C5000D96BDA6BDB6BDC6BDD6BDE6BDF6BE0970C
:102C6000E099E09BE09D320EEE6FE09FF1EF12F0F5
:102C7000EACF01F0E9CF02F0F4CF03F0F3CF04F094
:102C8000CEEC01F004C0F3FF03C0F4FF02C0E9FF83
:062C900001C0EAFF110083
:00000001FF
